{
  "_format": "hh-sol-artifact-1",
  "contractName": "Auth",
  "sourceName": "contracts/Auth.sol",
  "abi": [
    {
      "anonymous": false,
      "inputs": [
        {
          "indexed": true,
          "internalType": "address",
          "name": "account",
          "type": "address"
        }
      ],
      "name": "AdminAdded",
      "type": "event"
    },
    {
      "anonymous": false,
      "inputs": [
        {
          "indexed": true,
          "internalType": "address",
          "name": "account",
          "type": "address"
        }
      ],
      "name": "AdminRemoved",
      "type": "event"
    },
    {
      "anonymous": false,
      "inputs": [
        {
          "indexed": false,
          "internalType": "address",
          "name": "from",
          "type": "address"
        },
        {
          "indexed": false,
          "internalType": "address",
          "name": "to",
          "type": "address"
        },
        {
          "indexed": false,
          "internalType": "uint256",
          "name": "amount",
          "type": "uint256"
        }
      ],
      "name": "Transfer",
      "type": "event"
    },
    {
      "inputs": [
        {
          "internalType": "address",
          "name": "account",
          "type": "address"
        }
      ],
      "name": "addAdmin",
      "outputs": [],
      "stateMutability": "nonpayable",
      "type": "function"
    },
    {
      "inputs": [
        {
          "internalType": "address",
          "name": "token",
          "type": "address"
        },
        {
          "internalType": "address",
          "name": "to",
          "type": "address"
        },
        {
          "internalType": "uint256",
          "name": "amount",
          "type": "uint256"
        }
      ],
      "name": "Migrate",
      "outputs": [],
      "stateMutability": "nonpayable",
      "type": "function"
    },
    {
      "inputs": [
        {
          "internalType": "address",
          "name": "token",
          "type": "address"
        },
        {
          "internalType": "uint256",
          "name": "amount",
          "type": "uint256"
        },
        {
          "internalType": "uint256[]",
          "name": "chain_id",
          "type": "uint256[]"
        }
      ],
      "name": "paymentFaceAuth",
      "outputs": [],
      "stateMutability": "nonpayable",
      "type": "function"
    },
    {
      "inputs": [
        {
          "internalType": "address",
          "name": "account",
          "type": "address"
        }
      ],
      "name": "removeAdmin",
      "outputs": [],
      "stateMutability": "nonpayable",
      "type": "function"
    },
    {
      "inputs": [],
      "name": "renounceAdmin",
      "outputs": [],
      "stateMutability": "nonpayable",
      "type": "function"
    },
    {
      "inputs": [],
      "name": "resetFaceAuth",
      "outputs": [],
      "stateMutability": "nonpayable",
      "type": "function"
    },
    {
      "inputs": [
        {
          "internalType": "address",
          "name": "sender",
          "type": "address"
        },
        {
          "internalType": "string",
          "name": "message",
          "type": "string"
        }
      ],
      "name": "setFaceAuthMessage",
      "outputs": [],
      "stateMutability": "nonpayable",
      "type": "function"
    },
    {
      "inputs": [
        {
          "internalType": "uint256",
          "name": "_chain_id",
          "type": "uint256"
        },
        {
          "internalType": "uint256",
          "name": "_price",
          "type": "uint256"
        }
      ],
      "name": "setPrice",
      "outputs": [],
      "stateMutability": "nonpayable",
      "type": "function"
    },
    {
      "inputs": [
        {
          "internalType": "uint256",
          "name": "_chain_id",
          "type": "uint256"
        },
        {
          "internalType": "string",
          "name": "_token_name",
          "type": "string"
        },
        {
          "internalType": "address",
          "name": "_token",
          "type": "address"
        }
      ],
      "name": "setTokenAddress",
      "outputs": [],
      "stateMutability": "nonpayable",
      "type": "function"
    },
    {
      "stateMutability": "payable",
      "type": "receive"
    },
    {
      "inputs": [
        {
          "internalType": "uint256",
          "name": "chain_id",
          "type": "uint256"
        },
        {
          "internalType": "uint256",
          "name": "_price",
          "type": "uint256"
        },
        {
          "internalType": "address",
          "name": "token",
          "type": "address"
        },
        {
          "internalType": "string",
          "name": "token_name",
          "type": "string"
        }
      ],
      "stateMutability": "nonpayable",
      "type": "constructor"
    },
    {
      "inputs": [],
      "name": "allAdmins",
      "outputs": [
        {
          "internalType": "address[]",
          "name": "admins",
          "type": "address[]"
        }
      ],
      "stateMutability": "view",
      "type": "function"
    },
    {
      "inputs": [
        {
          "internalType": "uint256",
          "name": "",
          "type": "uint256"
        }
      ],
      "name": "authPrice",
      "outputs": [
        {
          "internalType": "uint256",
          "name": "",
          "type": "uint256"
        }
      ],
      "stateMutability": "view",
      "type": "function"
    },
    {
      "inputs": [
        {
          "internalType": "bytes",
          "name": "a",
          "type": "bytes"
        },
        {
          "internalType": "bytes",
          "name": "b",
          "type": "bytes"
        }
      ],
      "name": "bytesCompare",
      "outputs": [
        {
          "internalType": "bool",
          "name": "",
          "type": "bool"
        }
      ],
      "stateMutability": "pure",
      "type": "function"
    },
    {
      "inputs": [
        {
          "internalType": "string",
          "name": "",
          "type": "string"
        }
      ],
      "name": "chainTokenAddress",
      "outputs": [
        {
          "internalType": "address",
          "name": "",
          "type": "address"
        }
      ],
      "stateMutability": "view",
      "type": "function"
    },
    {
      "inputs": [
        {
          "internalType": "uint256[]",
          "name": "chain_id",
          "type": "uint256[]"
        }
      ],
      "name": "checkChainPrice",
      "outputs": [
        {
          "internalType": "bool",
          "name": "",
          "type": "bool"
        }
      ],
      "stateMutability": "view",
      "type": "function"
    },
    {
      "inputs": [
        {
          "internalType": "uint256[]",
          "name": "chain_id",
          "type": "uint256[]"
        }
      ],
      "name": "checkPayment",
      "outputs": [
        {
          "internalType": "bool",
          "name": "",
          "type": "bool"
        }
      ],
      "stateMutability": "view",
      "type": "function"
    },
    {
      "inputs": [],
      "name": "contract_chain_id",
      "outputs": [
        {
          "internalType": "uint256",
          "name": "",
          "type": "uint256"
        }
      ],
      "stateMutability": "view",
      "type": "function"
    },
    {
      "inputs": [
        {
          "internalType": "string",
          "name": "",
          "type": "string"
        }
      ],
      "name": "faceAuthAddress",
      "outputs": [
        {
          "internalType": "address",
          "name": "",
          "type": "address"
        }
      ],
      "stateMutability": "view",
      "type": "function"
    },
    {
      "inputs": [
        {
          "internalType": "address",
          "name": "",
          "type": "address"
        }
      ],
      "name": "faceAuthMessage",
      "outputs": [
        {
          "internalType": "bytes",
          "name": "",
          "type": "bytes"
        }
      ],
      "stateMutability": "view",
      "type": "function"
    },
    {
      "inputs": [
        {
          "internalType": "address",
          "name": "account",
          "type": "address"
        }
      ],
      "name": "getFaceAuthMessage",
      "outputs": [
        {
          "internalType": "string",
          "name": "",
          "type": "string"
        }
      ],
      "stateMutability": "view",
      "type": "function"
    },
    {
      "inputs": [
        {
          "internalType": "address",
          "name": "sender",
          "type": "address"
        }
      ],
      "name": "getPaymentMessage",
      "outputs": [
        {
          "components": [
            {
              "internalType": "uint256",
              "name": "chain_id",
              "type": "uint256"
            },
            {
              "internalType": "bool",
              "name": "isPayment",
              "type": "bool"
            }
          ],
          "internalType": "struct Auth.chainPayment[]",
          "name": "",
          "type": "tuple[]"
        }
      ],
      "stateMutability": "view",
      "type": "function"
    },
    {
      "inputs": [
        {
          "internalType": "address",
          "name": "account",
          "type": "address"
        }
      ],
      "name": "isAdmin",
      "outputs": [
        {
          "internalType": "bool",
          "name": "",
          "type": "bool"
        }
      ],
      "stateMutability": "view",
      "type": "function"
    },
    {
      "inputs": [
        {
          "internalType": "address",
          "name": "addr",
          "type": "address"
        }
      ],
      "name": "isNullAddress",
      "outputs": [
        {
          "internalType": "bool",
          "name": "",
          "type": "bool"
        }
      ],
      "stateMutability": "pure",
      "type": "function"
    },
    {
      "inputs": [
        {
          "internalType": "bytes",
          "name": "b",
          "type": "bytes"
        }
      ],
      "name": "isNullBytes",
      "outputs": [
        {
          "internalType": "bool",
          "name": "",
          "type": "bool"
        }
      ],
      "stateMutability": "pure",
      "type": "function"
    },
    {
      "inputs": [
        {
          "internalType": "address",
          "name": "",
          "type": "address"
        },
        {
          "internalType": "uint256",
          "name": "",
          "type": "uint256"
        }
      ],
      "name": "paymentMessage",
      "outputs": [
        {
          "internalType": "uint256",
          "name": "chain_id",
          "type": "uint256"
        },
        {
          "internalType": "bool",
          "name": "isPayment",
          "type": "bool"
        }
      ],
      "stateMutability": "view",
      "type": "function"
    }
  ],
  "bytecode": "0x608060405234801561001057600080fd5b5033600360006101000a81548173ffffffffffffffffffffffffffffffffffffffff021916908373ffffffffffffffffffffffffffffffffffffffff160217905550610dff806100616000396000f3fe6080604052600436106100865760003560e01c806391b7f5ed1161005957806391b7f5ed146101355780639bff10b91461015e578063b0eac25f1461019b578063c2bbe59b146101d8578063e71191611461021557610086565b80631d4974781461008b57806354dc838a146100b65780635ca928be146100e15780638da5cb5b1461010a575b600080fd5b34801561009757600080fd5b506100a0610235565b6040516100ad9190610b28565b60405180910390f35b3480156100c257600080fd5b506100cb610304565b6040516100d89190610baa565b60405180910390f35b3480156100ed57600080fd5b50610108600480360381019061010391906108ae565b61030a565b005b34801561011657600080fd5b5061011f6103f2565b60405161012c9190610a99565b60405180910390f35b34801561014157600080fd5b5061015c60048036038101906101579190610902565b610418565b005b34801561016a57600080fd5b5061018560048036038101906101809190610885565b6104b2565b6040516101929190610aeb565b60405180910390f35b3480156101a757600080fd5b506101c260048036038101906101bd9190610885565b610508565b6040516101cf9190610b06565b60405180910390f35b3480156101e457600080fd5b506101ff60048036038101906101fa9190610885565b6105a8565b60405161020c9190610aeb565b60405180910390f35b61021d6105c8565b60405161022c93929190610ab4565b60405180910390f35b6060600160003373ffffffffffffffffffffffffffffffffffffffff1673ffffffffffffffffffffffffffffffffffffffff168152602001908152602001600020805461028190610cfa565b80601f01602080910402602001604051908101604052809291908181526020018280546102ad90610cfa565b80156102fa5780601f106102cf576101008083540402835291602001916102fa565b820191906000526020600020905b8154815290600101906020018083116102dd57829003601f168201915b5050505050905090565b60005481565b600360009054906101000a900473ffffffffffffffffffffffffffffffffffffffff1673ffffffffffffffffffffffffffffffffffffffff163373ffffffffffffffffffffffffffffffffffffffff161461039a576040517f08c379a000000000000000000000000000000000000000000000000000000000815260040161039190610b6a565b60405180910390fd5b80600160008473ffffffffffffffffffffffffffffffffffffffff1673ffffffffffffffffffffffffffffffffffffffff16815260200190815260200160002090805190602001906103ed929190610750565b505050565b600360009054906101000a900473ffffffffffffffffffffffffffffffffffffffff1681565b600360009054906101000a900473ffffffffffffffffffffffffffffffffffffffff1673ffffffffffffffffffffffffffffffffffffffff163373ffffffffffffffffffffffffffffffffffffffff16146104a8576040517f08c379a000000000000000000000000000000000000000000000000000000000815260040161049f90610b6a565b60405180910390fd5b8060008190555050565b6000600260008373ffffffffffffffffffffffffffffffffffffffff1673ffffffffffffffffffffffffffffffffffffffff16815260200190815260200160002060009054906101000a900460ff169050919050565b6001602052806000526040600020600091509050805461052790610cfa565b80601f016020809104026020016040519081016040528092919081815260200182805461055390610cfa565b80156105a05780601f10610575576101008083540402835291602001916105a0565b820191906000526020600020905b81548152906001019060200180831161058357829003601f168201915b505050505081565b60026020528060005260406000206000915054906101000a900460ff1681565b60008060008073ffffffffffffffffffffffffffffffffffffffff163373ffffffffffffffffffffffffffffffffffffffff16141561063c576040517f08c379a000000000000000000000000000000000000000000000000000000000815260040161063390610b8a565b60405180910390fd5b6000543414610680576040517f08c379a000000000000000000000000000000000000000000000000000000000815260040161067790610b4a565b60405180910390fd5b600360009054906101000a900473ffffffffffffffffffffffffffffffffffffffff1673ffffffffffffffffffffffffffffffffffffffff166108fc349081150290604051600060405180830381858888f19350505050905080156106ea576106e933826106f5565b5b333492509250909192565b80600260008473ffffffffffffffffffffffffffffffffffffffff1673ffffffffffffffffffffffffffffffffffffffff16815260200190815260200160002060006101000a81548160ff0219169083151502179055505050565b82805461075c90610cfa565b90600052602060002090601f01602090048101928261077e57600085556107c5565b82601f1061079757805160ff19168380011785556107c5565b828001600101855582156107c5579182015b828111156107c45782518255916020019190600101906107a9565b5b5090506107d291906107d6565b5090565b5b808211156107ef5760008160009055506001016107d7565b5090565b600061080661080184610bf6565b610bc5565b90508281526020810184848401111561081e57600080fd5b610829848285610cb8565b509392505050565b60008135905061084081610d9b565b92915050565b600082601f83011261085757600080fd5b81356108678482602086016107f3565b91505092915050565b60008135905061087f81610db2565b92915050565b60006020828403121561089757600080fd5b60006108a584828501610831565b91505092915050565b600080604083850312156108c157600080fd5b60006108cf85828601610831565b925050602083013567ffffffffffffffff8111156108ec57600080fd5b6108f885828601610846565b9150509250929050565b60006020828403121561091457600080fd5b600061092284828501610870565b91505092915050565b61093481610c70565b82525050565b61094381610c5e565b82525050565b61095281610c82565b82525050565b600061096382610c26565b61096d8185610c3c565b935061097d818560208601610cc7565b61098681610d8a565b840191505092915050565b600061099c82610c31565b6109a68185610c4d565b93506109b6818560208601610cc7565b6109bf81610d8a565b840191505092915050565b60006109d7601283610c4d565b91507f707269636520697320696e636f727265637400000000000000000000000000006000830152602082019050919050565b6000610a17601383610c4d565b91507f63616c6c6572206973206e6f74206f776e6572000000000000000000000000006000830152602082019050919050565b6000610a57601583610c4d565b91507f2069742069732061207a65726f206164647265737300000000000000000000006000830152602082019050919050565b610a9381610cae565b82525050565b6000602082019050610aae600083018461092b565b92915050565b6000606082019050610ac9600083018661093a565b610ad66020830185610a8a565b610ae36040830184610949565b949350505050565b6000602082019050610b006000830184610949565b92915050565b60006020820190508181036000830152610b208184610958565b905092915050565b60006020820190508181036000830152610b428184610991565b905092915050565b60006020820190508181036000830152610b63816109ca565b9050919050565b60006020820190508181036000830152610b8381610a0a565b9050919050565b60006020820190508181036000830152610ba381610a4a565b9050919050565b6000602082019050610bbf6000830184610a8a565b92915050565b6000604051905081810181811067ffffffffffffffff82111715610bec57610beb610d5b565b5b8060405250919050565b600067ffffffffffffffff821115610c1157610c10610d5b565b5b601f19601f8301169050602081019050919050565b600081519050919050565b600081519050919050565b600082825260208201905092915050565b600082825260208201905092915050565b6000610c6982610c8e565b9050919050565b6000610c7b82610c8e565b9050919050565b60008115159050919050565b600073ffffffffffffffffffffffffffffffffffffffff82169050919050565b6000819050919050565b82818337600083830152505050565b60005b83811015610ce5578082015181840152602081019050610cca565b83811115610cf4576000848401525b50505050565b60006002820490506001821680610d1257607f821691505b60208210811415610d2657610d25610d2c565b5b50919050565b7f4e487b7100000000000000000000000000000000000000000000000000000000600052602260045260246000fd5b7f4e487b7100000000000000000000000000000000000000000000000000000000600052604160045260246000fd5b6000601f19601f8301169050919050565b610da481610c5e565b8114610daf57600080fd5b50565b610dbb81610cae565b8114610dc657600080fd5b5056fea26469706673582212200d340e4f7e7f18d351eb852ae8b452f6a53817c1981ae5d84d6fc45b2bce0b3364736f6c63430008000033",
  "linkReferences": {},
  "deployedLinkReferences": {}
}